{
  "contractName": "DonationContract",
  "abi": [
    {
      "anonymous": false,
      "inputs": [
        {
          "indexed": false,
          "internalType": "uint256",
          "name": "id",
          "type": "uint256"
        },
        {
          "indexed": false,
          "internalType": "string",
          "name": "hash",
          "type": "string"
        },
        {
          "indexed": false,
          "internalType": "string",
          "name": "description",
          "type": "string"
        },
        {
          "indexed": false,
          "internalType": "uint256",
          "name": "donationAmount",
          "type": "uint256"
        },
        {
          "indexed": false,
          "internalType": "address payable",
          "name": "author",
          "type": "address"
        }
      ],
      "name": "DonateImage",
      "type": "event"
    },
    {
      "anonymous": false,
      "inputs": [
        {
          "indexed": false,
          "internalType": "uint256",
          "name": "id",
          "type": "uint256"
        },
        {
          "indexed": false,
          "internalType": "string",
          "name": "hash",
          "type": "string"
        },
        {
          "indexed": false,
          "internalType": "string",
          "name": "description",
          "type": "string"
        },
        {
          "indexed": false,
          "internalType": "uint256",
          "name": "donationAmount",
          "type": "uint256"
        },
        {
          "indexed": false,
          "internalType": "address payable",
          "name": "author",
          "type": "address"
        }
      ],
      "name": "ImageCreated",
      "type": "event"
    },
    {
      "inputs": [],
      "name": "imageCount",
      "outputs": [
        {
          "internalType": "uint256",
          "name": "",
          "type": "uint256"
        }
      ],
      "stateMutability": "view",
      "type": "function",
      "constant": true
    },
    {
      "inputs": [
        {
          "internalType": "uint256",
          "name": "",
          "type": "uint256"
        }
      ],
      "name": "images",
      "outputs": [
        {
          "internalType": "uint256",
          "name": "id",
          "type": "uint256"
        },
        {
          "internalType": "string",
          "name": "hash",
          "type": "string"
        },
        {
          "internalType": "string",
          "name": "description",
          "type": "string"
        },
        {
          "internalType": "uint256",
          "name": "donationAmount",
          "type": "uint256"
        },
        {
          "internalType": "address payable",
          "name": "author",
          "type": "address"
        }
      ],
      "stateMutability": "view",
      "type": "function",
      "constant": true
    },
    {
      "inputs": [
        {
          "internalType": "string",
          "name": "_imgHash",
          "type": "string"
        },
        {
          "internalType": "string",
          "name": "_description",
          "type": "string"
        }
      ],
      "name": "uploadImage",
      "outputs": [],
      "stateMutability": "nonpayable",
      "type": "function"
    },
    {
      "inputs": [
        {
          "internalType": "uint256",
          "name": "_id",
          "type": "uint256"
        }
      ],
      "name": "donateImageOwner",
      "outputs": [],
      "stateMutability": "payable",
      "type": "function",
      "payable": true
    }
  ],
  "bytecode": "0x60806040526000805534801561001457600080fd5b50610f19806100246000396000f3fe60806040526004361061003f5760003560e01c80635da540d514610044578063848564821461006057806392053b63146100a1578063a91b8314146100cc575b600080fd5b61005e6004803603810190610059919061075d565b6100f5565b005b34801561006c57600080fd5b506100876004803603810190610082919061075d565b610417565b604051610098959493929190610873565b60405180910390f35b3480156100ad57600080fd5b506100b661057d565b6040516100c391906108d4565b60405180910390f35b3480156100d857600080fd5b506100f360048036038101906100ee9190610a24565b610583565b005b60008111801561010757506000548111155b61011057600080fd5b6000600160008381526020019081526020016000206040518060a00160405290816000820154815260200160018201805461014a90610acb565b80601f016020809104026020016040519081016040528092919081815260200182805461017690610acb565b80156101c35780601f10610198576101008083540402835291602001916101c3565b820191906000526020600020905b8154815290600101906020018083116101a657829003601f168201915b505050505081526020016002820180546101dc90610acb565b80601f016020809104026020016040519081016040528092919081815260200182805461020890610acb565b80156102555780601f1061022a57610100808354040283529160200191610255565b820191906000526020600020905b81548152906001019060200180831161023857829003601f168201915b50505050508152602001600382015481526020016004820160009054906101000a900473ffffffffffffffffffffffffffffffffffffffff1673ffffffffffffffffffffffffffffffffffffffff1673ffffffffffffffffffffffffffffffffffffffff168152505090506000816080015190508073ffffffffffffffffffffffffffffffffffffffff166108fc349081150290604051600060405180830381858888f1935050505015801561030f573d6000803e3d6000fd5b503482606001516103209190610b2b565b826060018181525050816001600085815260200190815260200160002060008201518160000155602082015181600101908161035c9190610d2d565b5060408201518160020190816103729190610d2d565b506060820151816003015560808201518160040160006101000a81548173ffffffffffffffffffffffffffffffffffffffff021916908373ffffffffffffffffffffffffffffffffffffffff1602179055509050507f7e51198e5c0a884efdde742e04b2abf8d8f4e756f4e3a18864cebe06c6e03f71838360200151846040015185606001518560405161040a959493929190610873565b60405180910390a1505050565b600160205280600052604060002060009150905080600001549080600101805461044090610acb565b80601f016020809104026020016040519081016040528092919081815260200182805461046c90610acb565b80156104b95780601f1061048e576101008083540402835291602001916104b9565b820191906000526020600020905b81548152906001019060200180831161049c57829003601f168201915b5050505050908060020180546104ce90610acb565b80601f01602080910402602001604051908101604052809291908181526020018280546104fa90610acb565b80156105475780601f1061051c57610100808354040283529160200191610547565b820191906000526020600020905b81548152906001019060200180831161052a57829003601f168201915b5050505050908060030154908060040160009054906101000a900473ffffffffffffffffffffffffffffffffffffffff16905085565b60005481565b600082511161059157600080fd5b600081511161059f57600080fd5b600073ffffffffffffffffffffffffffffffffffffffff163373ffffffffffffffffffffffffffffffffffffffff16036105d857600080fd5b6000808154809291906105ea90610dff565b91905055506040518060a001604052806000548152602001838152602001828152602001600081526020013373ffffffffffffffffffffffffffffffffffffffff1681525060016000805481526020019081526020016000206000820151816000015560208201518160010190816106629190610d2d565b5060408201518160020190816106789190610d2d565b506060820151816003015560808201518160040160006101000a81548173ffffffffffffffffffffffffffffffffffffffff021916908373ffffffffffffffffffffffffffffffffffffffff1602179055509050507fc1d8dfa99b3f84f95d3f0bc4a768addeb97b83b20aef7f9cb6729e126bafd2f96000548383600033604051610707959493929190610e82565b60405180910390a15050565b6000604051905090565b600080fd5b600080fd5b6000819050919050565b61073a81610727565b811461074557600080fd5b50565b60008135905061075781610731565b92915050565b6000602082840312156107735761077261071d565b5b600061078184828501610748565b91505092915050565b61079381610727565b82525050565b600081519050919050565b600082825260208201905092915050565b60005b838110156107d35780820151818401526020810190506107b8565b838111156107e2576000848401525b50505050565b6000601f19601f8301169050919050565b600061080482610799565b61080e81856107a4565b935061081e8185602086016107b5565b610827816107e8565b840191505092915050565b600073ffffffffffffffffffffffffffffffffffffffff82169050919050565b600061085d82610832565b9050919050565b61086d81610852565b82525050565b600060a082019050610888600083018861078a565b818103602083015261089a81876107f9565b905081810360408301526108ae81866107f9565b90506108bd606083018561078a565b6108ca6080830184610864565b9695505050505050565b60006020820190506108e9600083018461078a565b92915050565b600080fd5b600080fd5b7f4e487b7100000000000000000000000000000000000000000000000000000000600052604160045260246000fd5b610931826107e8565b810181811067ffffffffffffffff821117156109505761094f6108f9565b5b80604052505050565b6000610963610713565b905061096f8282610928565b919050565b600067ffffffffffffffff82111561098f5761098e6108f9565b5b610998826107e8565b9050602081019050919050565b82818337600083830152505050565b60006109c76109c284610974565b610959565b9050828152602081018484840111156109e3576109e26108f4565b5b6109ee8482856109a5565b509392505050565b600082601f830112610a0b57610a0a6108ef565b5b8135610a1b8482602086016109b4565b91505092915050565b60008060408385031215610a3b57610a3a61071d565b5b600083013567ffffffffffffffff811115610a5957610a58610722565b5b610a65858286016109f6565b925050602083013567ffffffffffffffff811115610a8657610a85610722565b5b610a92858286016109f6565b9150509250929050565b7f4e487b7100000000000000000000000000000000000000000000000000000000600052602260045260246000fd5b60006002820490506001821680610ae357607f821691505b602082108103610af657610af5610a9c565b5b50919050565b7f4e487b7100000000000000000000000000000000000000000000000000000000600052601160045260246000fd5b6000610b3682610727565b9150610b4183610727565b9250827fffffffffffffffffffffffffffffffffffffffffffffffffffffffffffffffff03821115610b7657610b75610afc565b5b828201905092915050565b60008190508160005260206000209050919050565b60006020601f8301049050919050565b600082821b905092915050565b600060088302610be37fffffffffffffffffffffffffffffffffffffffffffffffffffffffffffffffff82610ba6565b610bed8683610ba6565b95508019841693508086168417925050509392505050565b6000819050919050565b6000610c2a610c25610c2084610727565b610c05565b610727565b9050919050565b6000819050919050565b610c4483610c0f565b610c58610c5082610c31565b848454610bb3565b825550505050565b600090565b610c6d610c60565b610c78818484610c3b565b505050565b5b81811015610c9c57610c91600082610c65565b600181019050610c7e565b5050565b601f821115610ce157610cb281610b81565b610cbb84610b96565b81016020851015610cca578190505b610cde610cd685610b96565b830182610c7d565b50505b505050565b600082821c905092915050565b6000610d0460001984600802610ce6565b1980831691505092915050565b6000610d1d8383610cf3565b9150826002028217905092915050565b610d3682610799565b67ffffffffffffffff811115610d4f57610d4e6108f9565b5b610d598254610acb565b610d64828285610ca0565b600060209050601f831160018114610d975760008415610d85578287015190505b610d8f8582610d11565b865550610df7565b601f198416610da586610b81565b60005b82811015610dcd57848901518255600182019150602085019450602081019050610da8565b86831015610dea5784890151610de6601f891682610cf3565b8355505b6001600288020188555050505b505050505050565b6000610e0a82610727565b91507fffffffffffffffffffffffffffffffffffffffffffffffffffffffffffffffff8203610e3c57610e3b610afc565b5b600182019050919050565b6000819050919050565b6000610e6c610e67610e6284610e47565b610c05565b610727565b9050919050565b610e7c81610e51565b82525050565b600060a082019050610e97600083018861078a565b8181036020830152610ea981876107f9565b90508181036040830152610ebd81866107f9565b9050610ecc6060830185610e73565b610ed96080830184610864565b969550505050505056fea26469706673582212204cd02f8c64474e85155017df81ef3d4a487c14c62a1a5bf8fc73a344f508ec9464736f6c634300080f0033",
  "immutableReferences": {},
  "source": "// SPDX-License-Identifier: GPL-3.0\npragma solidity ^0.8.15;\n\ncontract DonationContract {\n    // Keep track of total number of images in contract\n    uint256 public imageCount = 0;\n\n    // Data structure to store images data\n    struct Image {\n        uint256 id;\n        string hash;\n        string description;\n        uint256 donationAmount;\n        address payable author;\n    }\n\n    mapping(uint256 => Image) public images;\n\n    // Event emitted when image is created\n    event ImageCreated(\n        uint256 id,\n        string hash,\n        string description,\n        uint256 donationAmount,\n        address payable author\n    );\n\n    // Event emitted when an there is a donation\n    event DonateImage(\n        uint256 id,\n        string hash,\n        string description,\n        uint256 donationAmount,\n        address payable author\n    );\n\n    // Create an Image\n    function uploadImage(string memory _imgHash, string memory _description)\n        public\n    {\n        require(bytes(_imgHash).length > 0); // we make sure the imageHash, msg.sender and description are not empty\n        require(bytes(_description).length > 0);\n        require(msg.sender != address(0x0));\n        imageCount++;\n        images[imageCount] = Image(\n            imageCount,\n            _imgHash,\n            _description,\n            0,\n            payable(msg.sender)\n        );\n        emit ImageCreated(\n            imageCount,\n            _imgHash,\n            _description,\n            0,\n            payable(msg.sender)\n        );\n    }\n\n    function donateImageOwner(uint256 _id) public payable {\n        require(_id > 0 && _id <= imageCount);\n\n        Image memory _image = images[_id];\n        address payable _author = _image.author;\n        payable(address(_author)).transfer(msg.value);\n        _image.donationAmount = _image.donationAmount + msg.value;\n        images[_id] = _image;\n\n        emit DonateImage(\n            _id,\n            _image.hash,\n            _image.description,\n            _image.donationAmount,\n            _author\n        );\n    }\n}\n",
  "sourcePath": "/Users/aycaoksuztepe/donate-app/donateapp/contracts/DonationContract.sol",
  "compiler": {
    "name": "solc",
    "version": "0.8.15+commit.e14f2714.Emscripten.clang"
  },
  "schemaVersion": "3.4.7",
  "updatedAt": "2022-06-27T09:44:25.645Z",
  "networkType": "ethereum",
  "devdoc": {
    "kind": "dev",
    "methods": {},
    "version": 1
  },
  "userdoc": {
    "kind": "user",
    "methods": {},
    "version": 1
  }
}